S01100006166666963686575722E7372656366
S11300000C943E000C945B000C945B000C945B001D
S11300100C945B000C945B000C945B000C945B00F0
S11300200C945B000C945B000C945B000C945B00E0
S11300300C945B000C945B000C945B000C945B00D0
S11300400C945B000C945B000C94B4040C945B0063
S11300500C945B000C945B000C945B000C945B00B0
S11300600C945B000C945B000C945B000C945B00A0
S11300700C945B000C945B000C945B0011241FBE79
S1130080CFEFD8E0DEBFCDBF11E0A0E0B1E0ECEFF0
S1130090F0E102C005900D92A030B107D9F721E03C
S11300A0A0E0B1E001C01D92A239B207E1F70E94BD
S11300B0F3040C947C080C940000CF93DF93CDB729
S11300C0DEB70E9417080000DF91CF910895CF9307
S11300D0DF9300D0CDB7DEB789836A838A81882F06
S11300E090E08130910599F082309105D9F0892B07
S11300F009F02FC081E290E021E230E0F901208193
S1130100322F298120952323FC01208322C081E200
S113011090E021E230E0F90130812981232BFC01B8
S1130120208317C081E290E021E230E0F9012081D0
S1130130322F298120952323FC01208382E290E041
S113014022E230E0F90130812981232BFC01208354
S1130150000000000F900F90DF91CF910895CF938E
S1130160DF9300D0CDB7DEB789836A838A81882381
S113017059F082E290E022E230E0F90130812981F5
S1130180232BFC0120830CC082E290E022E230E0C9
S1130190F9012081322F298120952323FC0120831A
S11301A000000F900F90DF91CF910895CF93DF93CC
S11301B01F92CDB7DEB7898382E290E02981FC01EA
S11301C0208300000F90DF91CF910895CF93DF93A8
S11301D000D0CDB7DEB789836A838A81882F90E007
S11301E08130910599F082309105D9F0892B09F07D
S11301F02FC084E290E024E230E0F9012081322F24
S1130200298120952323FC01208322C084E290E0ED
S113021024E230E0F90130812981232BFC01208381
S113022017C084E290E024E230E0F9012081322F0B
S1130230298120952323FC01208385E290E025E297
S113024030E0F90130812981232BFC012083000057
S113025000000F900F90DF91CF910895CF93DF931B
S113026000D0CDB7DEB789836A838A81882359F0A9
S113027085E290E025E230E0F90130812981232BE9
S1130280FC0120830CC085E290E025E230E0F90116
S11302902081322F298120952323FC012083000013
S11302A00F900F90DF91CF910895CF93DF9300D0FB
S11302B0CDB7DEB789836A838A81882F90E0813045
S11302C0910599F082309105D9F0892B09F02FC05E
S11302D087E290E027E230E0F9012081322F298182
S11302E020952323FC01208322C087E290E027E2AB
S11302F030E0F90130812981232BFC01208317C0D0
S113030087E290E027E230E0F9012081322F298151
S113031020952323FC01208388E290E028E230E04A
S1130320F90130812981232BFC0120830000000086
S11303300F900F90DF91CF910895CF93DF9300D06A
S1130340CDB7DEB789836A838A81882359F088E22E
S113035090E028E230E0F90130812981232BFC016F
S113036020830CC088E290E028E230E0F90120818B
S1130370322F298120952323FC01208300000F9034
S11303800F90DF91CF910895CF93DF93CDB7DEB770
S113039061E083EE0E949D010000DF91CF910895FA
S11303A0CF93DF93CDB7DEB761E08DEF0E94AF004E
S11303B060E082E00E942E0161E082E00E942E0152
S11303C060E082E00E942E0160E082E00E94AF00C3
S11303D061E082E00E94AF0060E082E00E94AF0032
S11303E00000DF91CF910895CF93DF931F92CDB793
S11303F0DEB7198230C08981882F90E08A579E4FDA
S1130400FC018081882321F18981282F30E0C901F2
S1130410880F991F880F991F820F931FBC01625F79
S11304207E4F8981282F30E0C901880F991F880FDA
S1130430991F820F931F865B9E4F45E050E00E94F8
S11304406C088981882F90E08A579E4FFC011082A6
S113045089818F5F898389818C3068F200000F90D5
S1130460DF91CF910895CF93DF93CDB7DEB761E0ED
S11304708FEF0E94670061E08FEF0E94E60061E069
S11304808FEF0E9455010E94C4010E94D0010E9476
S1130490CE020E94F7020E94E204DC01CB018093A9
S11304A0000190930101A0930201B09303010000A5
S11304B0DF91CF910895EF92FF920F931F93CF9303
S11304C0DF93CDB7DEB70E94F4010E94E2049B01E2
S11304D0AC018091000190910101A0910201B091C1
S11304E0030179018A01E81AF90A0A0B1B0BD801E6
S11304F0C701813A9F40A105B10518F1809100011F
S113050090910101A0910201B09103018056904F96
S1130510AF4FBF4F8093000190930101A09302015C
S1130520B0930301809104010E94B90380910401F6
S11305308F5F8093040180910401853010F0109244
S113054004010000DF91CF911F910F91FF90EF9074
S11305500895CF93DF9300D0CDB7DEB789836A8344
S11305608A81882319F06DEF7FEF02C060E070E0AC
S11305708981282F30E0C901880F991F880F991F9E
S1130580820F931F825F9E4F45E050E00E947508E2
S113059000000F900F90DF91CF910895CF93DF93D8
S11305A01F92CDB7DEB7198207C061E089810E942E
S11305B0A90289818F5F898389818C30B0F300001F
S11305C00F90DF91CF910895CF93DF931F92CDB712
S11305D0DEB789838981882F90E08A579E4F21E076
S11305E0FC01208300000F90DF91CF910895CF93F9
S11305F0DF931F92CDB7DEB7198206C089810E94AE
S1130600E40289818F5F898389818C30B8F300008B
S11306100F90DF91CF910895CF93DF9300D000D056
S11306201F92CDB7DEB78B836C834D838C81882377
S113063019F481E0898323C08C81813019F480E826
S113064089831DC08C81823019F480E4898317C0AA
S11306508C81833019F480E2898311C08C818430C9
S113066019F480E189830BC08C81853019F488E00A
S1130670898305C08C81863011F484E089838B8161
S1130680282F30E08D81482F50E0C901880F991F31
S1130690880F991F820F931F840F951F825F9E4FAF
S11306A0FC019081898189238A838A8180958A8348
S11306B09A81898189238A838B81282F30E08D81D7
S11306C0682F70E08B81482F50E08D81E82FF0E097
S11306D0CA01880F991F880F991F840F951F8E0FC9
S11306E09F1F825F9E4FFC018081982F8981809596
S11306F08923482FC901880F991F880F991F820FDA
S1130700931F860F971F825F9E4FFC0140838B814E
S1130710282F30E08D81682F70E08B81482F50E0C6
S11307208D81E82FF0E0CA01880F991F880F991F67
S1130730840F951F8E0F9F1F825F9E4FFC01908137
S11307408A81492F482BC901880F991F880F991F47
S1130750820F931F860F971F825F9E4FFC01408379
S113076000000F900F900F900F900F90DF91CF919A
S11307700895CF93DF931F92CDB7DEB78983898124
S1130780882329F461E080E20E949D011FC08981D1
S1130790813029F461E081E00E949D0117C08981C4
S11307A0823029F461E082E00E949D010FC08981BA
S11307B0833029F461E080E80E949D0107C08981AB
S11307C0843021F461E080E40E949D018981882FB6
S11307D090E0865B9E4FFC0180818D7F0E94D60055
S11307E061E080E80E942E018981882F90E0815B7E
S11307F09E4FFC0180818D7F0E94D60061E080E4E1
S11308000E942E018981882F90E08C5A9E4FFC0112
S113081080818D7F0E94D60061E080E20E942E01DB
S11308208981882F90E0875A9E4FFC0180818D7FBB
S11308300E94D60061E080E10E942E018981882F08
S113084090E0825A9E4FFC0180818D7F0E94D600E9
S113085061E088E00E942E018981882F90E08D5903
S11308609E4FFC0180818D7F0E94D60061E084E070
S11308700E942E018981882F90E088599E4FFC01A7
S113088080818D7F0E94D60061E082E00E942E016B
S11308908981882F90E083599E4FFC0180818D7F50
S11308A00E94D60061E081E00E942E018981882F98
S11308B090E08F579E4FFC0180818D7F0E94D6006F
S11308C061E082E00E94AF008981882329F460E01E
S11308D081E00E949D011FC08981813029F460E07C
S11308E082E00E949D0117C08981823029F460E072
S11308F080E80E949D010FC08981833029F460E063
S113090080E40E949D0107C08981843021F460E065
S113091080E20E949D0160E080E80E942E0160E078
S113092080E40E942E0160E080E20E942E0160E0DB
S113093080E10E942E0160E088E00E942E0160E0C8
S113094084E00E942E0160E082E00E942E0160E0BB
S113095081E00E942E0160E082E00E94AF0000006E
S11309600F90DF91CF9108951F920F9200905F0036
S11309700F9211248F939F93AF93BF93CF93DF93E1
S1130980CDB7DEB78091050190910601A0910701D2
S1130990B0910801985FAF4FBF4F809305019093CA
S11309A00601A0930701B09308010000DF91CF91E5
S11309B0BF91AF919F918F910F9000925F000F9024
S11309C01F901895CF93DF93CDB7DEB780910501C3
S11309D090910601A0910701B0910801BC01CD01DD
S11309E0DF91CF910895EF92FF920F931F93CF93CE
S11309F0DF9300D0CDB7DEB70E945D000E943302C2
S1130A000E94E204DC01CB018093090190930A0166
S1130A10A0930B01B0930C010E94E2049B01AC0172
S1130A208091090190910A01A0910B01B0910C01F0
S1130A3079018A01E81AF90A0A0B1B0BD801C701CC
S1130A408139904DA340B10508F444C08091090157
S1130A5090910A01A0910B01B0910C0180579F4223
S1130A60AC4FBF4F8093090190930A01A0930B01EF
S1130A70B0930C01198224C01A821CC020910D016C
S1130A8085E2289F812D1124922F981B9695890F1A
S1130A90982F96959695892F880F880F880F891B14
S1130AA0922F981B4A81692F89810E940C038A81A5
S1130AB08F5F8A838A81853008F389818F5F898378
S1130AC089818C30C8F20E94F70280910D018F5FFA
S1130AD080930D010E945B029FCFCF93DF9300D0E0
S1130AE0CDB7DEB789836A838A81882F90E081300D
S1130AF0910599F082309105D9F0892B09F02FC026
S1130B0081E290E021E230E0F9012081322F298155
S1130B1020952323FC01208322C081E290E021E27E
S1130B2030E0F90130812981232BFC01208317C097
S1130B3081E290E021E230E0F9012081322F298125
S1130B4020952323FC01208382E290E022E230E01E
S1130B50F90130812981232BFC012083000000004E
S1130B600F900F90DF91CF910895CF93DF9300D032
S1130B70CDB7DEB789836A838A81882F90E081307C
S1130B80910599F082309105D9F0892B09F02FC095
S1130B9084E290E024E230E0F9012081322F2981BF
S1130BA020952323FC01208322C084E290E024E2E8
S1130BB030E0F90130812981232BFC01208317C007
S1130BC084E290E024E230E0F9012081322F29818F
S1130BD020952323FC01208385E290E025E230E088
S1130BE0F90130812981232BFC01208300000000BE
S1130BF00F900F90DF91CF910895CF93DF9300D0A2
S1130C00CDB7DEB789836A838A81882F90E08130EB
S1130C10910599F082309105D9F0892B09F02FC004
S1130C2087E290E027E230E0F9012081322F298128
S1130C3020952323FC01208322C087E290E027E251
S1130C4030E0F90130812981232BFC01208317C076
S1130C5087E290E027E230E0F9012081322F2981F8
S1130C6020952323FC01208388E290E028E230E0F1
S1130C70F90130812981232BFC012083000000002D
S1130C800F900F90DF91CF910895CF93DF9300D011
S1130C90CDB7DEB789836A838A81813051F58AE2D0
S1130CA090E02AE230E0F9012081622F2981422F6D
S1130CB050E021E030E002C0220F331F4A95E2F7F2
S1130CC020952623FC0120838BE290E02BE230E088
S1130CD0F9012081622F2981422F50E021E030E088
S1130CE002C0220F331F4A95E2F7262BFC01208312
S1130CF018C08A818823A9F48BE290E02BE230E0CB
S1130D00F9012081622F2981422F50E021E030E057
S1130D1002C0220F331F4A95E2F720952623FC01D7
S1130D20208300000F900F90DF91CF910895CF930F
S1130D30DF9300D0CDB7DEB789836A838A81882F99
S1130D4090E08130910599F082309105D9F0892B9A
S1130D5009F02FC08AE290E02AE230E0F901208114
S1130D60322F298120952323FC01208322C08AE28B
S1130D7090E02AE230E0F90130812981232BFC0143
S1130D80208317C08AE290E02AE230E0F901208152
S1130D90322F298120952323FC0120838BE290E0CC
S1130DA02BE230E0F90130812981232BFC012083DF
S1130DB0000000000F900F90DF91CF910895CF9322
S1130DC0DF9300D0CDB7DEB789836A838A81882F09
S1130DD090E081309105E1F08230910571F1892B29
S1130DE009F055C08AE290E02AE230E0F90120815E
S1130DF0622F2981422F50E021E030E002C0220F0F
S1130E00331F4A95E2F720952623FC0120833FC037
S1130E108AE290E02AE230E0F9012081622F298100
S1130E20422F50E021E030E002C0220F331F4A95E8
S1130E30E2F7262BFC0120832AC08AE290E02AE212
S1130E4030E0F9012081622F2981422F50E021E016
S1130E5030E002C0220F331F4A95E2F72095262383
S1130E60FC0120838BE290E02BE230E0F901208149
S1130E70622F2981422F50E021E030E002C0220F8E
S1130E80331F4A95E2F7262BFC0120830000000063
S1130E900F900F90DF91CF910895CF93DF9300D0FF
S1130EA0CDB7DEB789836A838A818823A9F08BE270
S1130EB090E02BE230E0F9012081622F2981422F5A
S1130EC050E021E030E002C0220F331F4A95E2F7E0
S1130ED0262BFC01208315C08BE290E02BE230E04E
S1130EE0F9012081622F2981422F50E021E030E076
S1130EF002C0220F331F4A95E2F720952623FC01F6
S1130F00208300000F900F90DF91CF910895CF932D
S1130F10DF931F92CDB7DEB78983698180E00E9499
S1130F20450600000F90DF91CF910895CF93DF9392
S1130F301F92CDB7DEB78983698180E00E94DF0606
S1130F4000000F90DF91CF910895CF93DF931F920C
S1130F50CDB7DEB78983698181E00E94DF06000096
S1130F600F90DF91CF910895CF93DF931F92CDB768
S1130F70DEB78983698181E00E944D0700000F90EC
S1130F80DF91CF910895CF93DF93CDB7DEB740E0E3
S1130F9060E881E690E00E94270883E590E0FC0188
S1130FA0108285E590E0FC011082789480E0DF9166
S1130FB0CF910895CF93DF93CDB7DEB784E690E069
S1130FC02FEFFC01208362E08FEF0E946D0562E049
S1130FD08FEF0E94B50562E08FEF0E94FD0562E08D
S1130FE08FEF0E9497060000DF91CF910895CF9371
S1130FF0DF93CDB7DEB70E942E080000DF91CF91BA
S11310000895CF93DF93CDB7DEB780E00E949607B3
S113101080E00E94870781E00E94A50780E00E948B
S1131020B4070E9449080000DF91CF910895CF933F
S1131030DF93CDB7DEB70E94DA070E94C3070E9490
S1131040F7070E9401080000DF91CF9108952FB7A0
S1131050F894FC01608340832FBF0895CF93DF93FE
S1131060CDB7DEB784E690E024E630E0F9012081D4
S11310702F7DFC01208385E490E023E0FC012083A4
S11310808EE690E021E0FC01208380E0DF91CF91A7
S11310900895CF93DF93CDB7DEB784E690E024E6DE
S11310A030E0F90120812D7FFC01208385EC90E064
S11310B0FC01108284EC90E021E0FC01208380ECB0
S11310C090E0FC01108281EC90E028E9FC0120838F
S11310D080E0DF91CF910895FB01DC0102C0019013
S11310E00D9241505040D8F70895DC0101C06D9332
S10F10F041505040E0F70895F894FFCF01
S9030000FC
